{
  "contractName": "Registry",
  "abi": [
    {
      "inputs": [],
      "stateMutability": "nonpayable",
      "type": "constructor"
    },
    {
      "inputs": [
        {
          "internalType": "address",
          "name": "",
          "type": "address"
        }
      ],
      "name": "admins",
      "outputs": [
        {
          "internalType": "address",
          "name": "adminAddress",
          "type": "address"
        },
        {
          "internalType": "string",
          "name": "city",
          "type": "string"
        },
        {
          "internalType": "string",
          "name": "district",
          "type": "string"
        },
        {
          "internalType": "string",
          "name": "state",
          "type": "string"
        }
      ],
      "stateMutability": "view",
      "type": "function",
      "constant": true
    },
    {
      "inputs": [
        {
          "internalType": "string",
          "name": "",
          "type": "string"
        },
        {
          "internalType": "string",
          "name": "",
          "type": "string"
        },
        {
          "internalType": "string",
          "name": "",
          "type": "string"
        },
        {
          "internalType": "uint256",
          "name": "",
          "type": "uint256"
        }
      ],
      "name": "landDetalsMap",
      "outputs": [
        {
          "internalType": "address",
          "name": "owner",
          "type": "address"
        },
        {
          "internalType": "address",
          "name": "admin",
          "type": "address"
        },
        {
          "internalType": "uint256",
          "name": "propertyId",
          "type": "uint256"
        },
        {
          "internalType": "uint256",
          "name": "surveyNumber",
          "type": "uint256"
        },
        {
          "internalType": "uint256",
          "name": "index",
          "type": "uint256"
        },
        {
          "internalType": "bool",
          "name": "registered",
          "type": "bool"
        },
        {
          "internalType": "uint256",
          "name": "marketValue",
          "type": "uint256"
        },
        {
          "internalType": "bool",
          "name": "markAvailable",
          "type": "bool"
        },
        {
          "internalType": "uint256",
          "name": "noOfRequests",
          "type": "uint256"
        },
        {
          "internalType": "uint256",
          "name": "sqft",
          "type": "uint256"
        }
      ],
      "stateMutability": "view",
      "type": "function",
      "constant": true
    },
    {
      "inputs": [
        {
          "internalType": "address",
          "name": "",
          "type": "address"
        },
        {
          "internalType": "uint256",
          "name": "",
          "type": "uint256"
        }
      ],
      "name": "ownerMapsProperty",
      "outputs": [
        {
          "internalType": "uint256",
          "name": "surveyNumber",
          "type": "uint256"
        },
        {
          "internalType": "string",
          "name": "state",
          "type": "string"
        },
        {
          "internalType": "string",
          "name": "district",
          "type": "string"
        },
        {
          "internalType": "string",
          "name": "city",
          "type": "string"
        }
      ],
      "stateMutability": "view",
      "type": "function",
      "constant": true
    },
    {
      "inputs": [
        {
          "internalType": "address",
          "name": "",
          "type": "address"
        },
        {
          "internalType": "uint256",
          "name": "",
          "type": "uint256"
        }
      ],
      "name": "requestedLands",
      "outputs": [
        {
          "internalType": "uint256",
          "name": "surveyNumber",
          "type": "uint256"
        },
        {
          "internalType": "string",
          "name": "state",
          "type": "string"
        },
        {
          "internalType": "string",
          "name": "district",
          "type": "string"
        },
        {
          "internalType": "string",
          "name": "city",
          "type": "string"
        }
      ],
      "stateMutability": "view",
      "type": "function",
      "constant": true
    },
    {
      "inputs": [],
      "name": "superAdmin",
      "outputs": [
        {
          "internalType": "address",
          "name": "",
          "type": "address"
        }
      ],
      "stateMutability": "view",
      "type": "function",
      "constant": true
    },
    {
      "inputs": [],
      "name": "totalAdmins",
      "outputs": [
        {
          "internalType": "uint256",
          "name": "",
          "type": "uint256"
        }
      ],
      "stateMutability": "view",
      "type": "function",
      "constant": true
    },
    {
      "inputs": [
        {
          "internalType": "address",
          "name": "",
          "type": "address"
        }
      ],
      "name": "userProfile",
      "outputs": [
        {
          "internalType": "address",
          "name": "userAddr",
          "type": "address"
        },
        {
          "internalType": "string",
          "name": "fullName",
          "type": "string"
        },
        {
          "internalType": "string",
          "name": "gender",
          "type": "string"
        },
        {
          "internalType": "string",
          "name": "email",
          "type": "string"
        },
        {
          "internalType": "uint256",
          "name": "contact",
          "type": "uint256"
        },
        {
          "internalType": "string",
          "name": "residentialAddr",
          "type": "string"
        },
        {
          "internalType": "uint256",
          "name": "totalIndices",
          "type": "uint256"
        },
        {
          "internalType": "uint256",
          "name": "requestIndices",
          "type": "uint256"
        }
      ],
      "stateMutability": "view",
      "type": "function",
      "constant": true
    },
    {
      "inputs": [
        {
          "internalType": "address",
          "name": "_adminAddr",
          "type": "address"
        },
        {
          "internalType": "string",
          "name": "_state",
          "type": "string"
        },
        {
          "internalType": "string",
          "name": "_district",
          "type": "string"
        },
        {
          "internalType": "string",
          "name": "_city",
          "type": "string"
        }
      ],
      "name": "addAdmin",
      "outputs": [],
      "stateMutability": "nonpayable",
      "type": "function"
    },
    {
      "inputs": [],
      "name": "isAdmin",
      "outputs": [
        {
          "internalType": "bool",
          "name": "",
          "type": "bool"
        }
      ],
      "stateMutability": "view",
      "type": "function",
      "constant": true
    },
    {
      "inputs": [
        {
          "internalType": "string",
          "name": "_state",
          "type": "string"
        },
        {
          "internalType": "string",
          "name": "_district",
          "type": "string"
        },
        {
          "internalType": "string",
          "name": "_city",
          "type": "string"
        },
        {
          "internalType": "uint256",
          "name": "_propertyId",
          "type": "uint256"
        },
        {
          "internalType": "uint256",
          "name": "_surveyNo",
          "type": "uint256"
        },
        {
          "internalType": "address",
          "name": "_owner",
          "type": "address"
        },
        {
          "internalType": "uint256",
          "name": "_marketValue",
          "type": "uint256"
        },
        {
          "internalType": "uint256",
          "name": "_sqft",
          "type": "uint256"
        }
      ],
      "name": "registerLand",
      "outputs": [],
      "stateMutability": "nonpayable",
      "type": "function"
    },
    {
      "inputs": [
        {
          "internalType": "string",
          "name": "_fullName",
          "type": "string"
        },
        {
          "internalType": "string",
          "name": "_gender",
          "type": "string"
        },
        {
          "internalType": "string",
          "name": "_email",
          "type": "string"
        },
        {
          "internalType": "uint256",
          "name": "_contact",
          "type": "uint256"
        },
        {
          "internalType": "string",
          "name": "_residentialAddr",
          "type": "string"
        }
      ],
      "name": "setUserProfile",
      "outputs": [],
      "stateMutability": "nonpayable",
      "type": "function"
    },
    {
      "inputs": [
        {
          "internalType": "uint256",
          "name": "indexNo",
          "type": "uint256"
        }
      ],
      "name": "markMyPropertyAvailable",
      "outputs": [],
      "stateMutability": "nonpayable",
      "type": "function"
    },
    {
      "inputs": [
        {
          "internalType": "string",
          "name": "_state",
          "type": "string"
        },
        {
          "internalType": "string",
          "name": "_district",
          "type": "string"
        },
        {
          "internalType": "string",
          "name": "_city",
          "type": "string"
        },
        {
          "internalType": "uint256",
          "name": "_surveyNo",
          "type": "uint256"
        }
      ],
      "name": "RequestForBuy",
      "outputs": [],
      "stateMutability": "payable",
      "type": "function",
      "payable": true
    },
    {
      "inputs": [
        {
          "internalType": "uint256",
          "name": "_index",
          "type": "uint256"
        },
        {
          "internalType": "uint256",
          "name": "_reqNo",
          "type": "uint256"
        }
      ],
      "name": "AcceptRequest",
      "outputs": [],
      "stateMutability": "payable",
      "type": "function",
      "payable": true
    },
    {
      "inputs": [
        {
          "internalType": "string",
          "name": "_state",
          "type": "string"
        },
        {
          "internalType": "string",
          "name": "_district",
          "type": "string"
        },
        {
          "internalType": "string",
          "name": "_city",
          "type": "string"
        },
        {
          "internalType": "uint256",
          "name": "_surveyNo",
          "type": "uint256"
        }
      ],
      "name": "getLandDetails",
      "outputs": [
        {
          "internalType": "address",
          "name": "",
          "type": "address"
        },
        {
          "internalType": "uint256",
          "name": "",
          "type": "uint256"
        },
        {
          "internalType": "uint256",
          "name": "",
          "type": "uint256"
        },
        {
          "internalType": "uint256",
          "name": "",
          "type": "uint256"
        },
        {
          "internalType": "uint256",
          "name": "",
          "type": "uint256"
        }
      ],
      "stateMutability": "view",
      "type": "function",
      "constant": true
    },
    {
      "inputs": [
        {
          "internalType": "string",
          "name": "_state",
          "type": "string"
        },
        {
          "internalType": "string",
          "name": "_district",
          "type": "string"
        },
        {
          "internalType": "string",
          "name": "_city",
          "type": "string"
        },
        {
          "internalType": "uint256",
          "name": "_surveyNo",
          "type": "uint256"
        }
      ],
      "name": "getRequestCnt_propId",
      "outputs": [
        {
          "internalType": "uint256",
          "name": "",
          "type": "uint256"
        },
        {
          "internalType": "uint256",
          "name": "",
          "type": "uint256"
        }
      ],
      "stateMutability": "view",
      "type": "function",
      "constant": true
    },
    {
      "inputs": [
        {
          "internalType": "string",
          "name": "_state",
          "type": "string"
        },
        {
          "internalType": "string",
          "name": "_district",
          "type": "string"
        },
        {
          "internalType": "string",
          "name": "_city",
          "type": "string"
        },
        {
          "internalType": "uint256",
          "name": "_surveyNo",
          "type": "uint256"
        },
        {
          "internalType": "uint256",
          "name": "_reqIndex",
          "type": "uint256"
        }
      ],
      "name": "getRequesterDetail",
      "outputs": [
        {
          "internalType": "address",
          "name": "",
          "type": "address"
        }
      ],
      "stateMutability": "view",
      "type": "function",
      "constant": true
    },
    {
      "inputs": [
        {
          "internalType": "string",
          "name": "_state",
          "type": "string"
        },
        {
          "internalType": "string",
          "name": "_district",
          "type": "string"
        },
        {
          "internalType": "string",
          "name": "_city",
          "type": "string"
        },
        {
          "internalType": "uint256",
          "name": "_surveyNo",
          "type": "uint256"
        }
      ],
      "name": "isAvailable",
      "outputs": [
        {
          "internalType": "bool",
          "name": "",
          "type": "bool"
        }
      ],
      "stateMutability": "view",
      "type": "function",
      "constant": true
    },
    {
      "inputs": [
        {
          "internalType": "uint256",
          "name": "indx",
          "type": "uint256"
        }
      ],
      "name": "getOwnerOwns",
      "outputs": [
        {
          "internalType": "string",
          "name": "",
          "type": "string"
        },
        {
          "internalType": "string",
          "name": "",
          "type": "string"
        },
        {
          "internalType": "string",
          "name": "",
          "type": "string"
        },
        {
          "internalType": "uint256",
          "name": "",
          "type": "uint256"
        }
      ],
      "stateMutability": "view",
      "type": "function",
      "constant": true
    },
    {
      "inputs": [
        {
          "internalType": "uint256",
          "name": "indx",
          "type": "uint256"
        }
      ],
      "name": "getRequestedLands",
      "outputs": [
        {
          "internalType": "string",
          "name": "",
          "type": "string"
        },
        {
          "internalType": "string",
          "name": "",
          "type": "string"
        },
        {
          "internalType": "string",
          "name": "",
          "type": "string"
        },
        {
          "internalType": "uint256",
          "name": "",
          "type": "uint256"
        }
      ],
      "stateMutability": "view",
      "type": "function",
      "constant": true
    },
    {
      "inputs": [],
      "name": "getUserProfile",
      "outputs": [
        {
          "internalType": "string",
          "name": "",
          "type": "string"
        },
        {
          "internalType": "string",
          "name": "",
          "type": "string"
        },
        {
          "internalType": "string",
          "name": "",
          "type": "string"
        },
        {
          "internalType": "uint256",
          "name": "",
          "type": "uint256"
        },
        {
          "internalType": "string",
          "name": "",
          "type": "string"
        }
      ],
      "stateMutability": "view",
      "type": "function",
      "constant": true
    },
    {
      "inputs": [],
      "name": "getIndices",
      "outputs": [
        {
          "internalType": "uint256",
          "name": "",
          "type": "uint256"
        },
        {
          "internalType": "uint256",
          "name": "",
          "type": "uint256"
        }
      ],
      "stateMutability": "view",
      "type": "function",
      "constant": true
    },
    {
      "inputs": [
        {
          "internalType": "string",
          "name": "_state",
          "type": "string"
        },
        {
          "internalType": "string",
          "name": "_district",
          "type": "string"
        },
        {
          "internalType": "string",
          "name": "_city",
          "type": "string"
        },
        {
          "internalType": "uint256",
          "name": "_surveyNo",
          "type": "uint256"
        }
      ],
      "name": "didIRequested",
      "outputs": [
        {
          "internalType": "bool",
          "name": "",
          "type": "bool"
        }
      ],
      "stateMutability": "view",
      "type": "function",
      "constant": true
    }
  ],
  "bytecode": "0x608060405234801561001057600080fd5b50336000806101000a81548173ffffffffffffffffffffffffffffffffffffffff021916908373ffffffffffffffffffffffffffffffffffffffff160217905550614bab806100606000396000f3fe6080604052600436106101405760003560e01c80636d1b9a8e116100b6578063d06efd671161006f578063d06efd67146104ba578063d1dbeff2146104f8578063d41cc5c814610538578063e331ad7c14610554578063eaec23fa14610595578063eb68048b146105d257610140565b80636d1b9a8e1461039e5780636f61c744146103de5780638a80e4e41461040d578063992369da14610429578063b6db75a014610466578063bfde241c1461049157610140565b80632a52ee86116101085780632a52ee86146102635780632ca305f31461028c5780633bbd43b3146102cc578063429b62e51461030957806344e05734146103495780635863056d1461037257610140565b806303825d6c146101455780630e2279af1461016e5780631555ff1e146101ae5780631c8e8962146101f457806329575f6a14610238575b600080fd5b34801561015157600080fd5b5061016c60048036038101906101679190613d5f565b6105fd565b005b34801561017a57600080fd5b5061019560048036038101906101909190613e50565b6106ed565b6040516101a59493929190613f27565b60405180910390f35b3480156101ba57600080fd5b506101d560048036038101906101d09190613f81565b6108c2565b6040516101eb9a99989796959493929190614066565b60405180910390f35b34801561020057600080fd5b5061021b60048036038101906102169190614102565b6109d9565b60405161022f98979695949392919061412f565b60405180910390f35b34801561024457600080fd5b5061024d610c61565b60405161025a91906141c9565b60405180910390f35b34801561026f57600080fd5b5061028a600480360381019061028591906141e4565b610c85565b005b34801561029857600080fd5b506102b360048036038101906102ae91906142ee565b6112fa565b6040516102c3949392919061431b565b60405180910390f35b3480156102d857600080fd5b506102f360048036038101906102ee9190614375565b61160f565b60405161030091906141c9565b60405180910390f35b34801561031557600080fd5b50610330600480360381019061032b9190614102565b6116c0565b6040516103409493929190614444565b60405180910390f35b34801561035557600080fd5b50610370600480360381019061036b91906142ee565b6118a8565b005b34801561037e57600080fd5b50610387611ce8565b60405161039592919061449e565b60405180910390f35b3480156103aa57600080fd5b506103c560048036038101906103c091906142ee565b611d85565b6040516103d5949392919061431b565b60405180910390f35b3480156103ea57600080fd5b506103f361209a565b6040516104049594939291906144c7565b60405180910390f35b61042760048036038101906104229190613f81565b612441565b005b34801561043557600080fd5b50610450600480360381019061044b9190613f81565b612728565b60405161045d9190614536565b60405180910390f35b34801561047257600080fd5b5061047b6127b1565b6040516104889190614536565b60405180910390f35b34801561049d57600080fd5b506104b860048036038101906104b39190614551565b61285a565b005b3480156104c657600080fd5b506104e160048036038101906104dc9190613f81565b612912565b6040516104ef92919061449e565b60405180910390f35b34801561050457600080fd5b5061051f600480360381019061051a9190613e50565b612a04565b60405161052f9493929190613f27565b60405180910390f35b610552600480360381019061054d919061463c565b612bd9565b005b34801561056057600080fd5b5061057b60048036038101906105769190613f81565b61371e565b60405161058c95949392919061467c565b60405180910390f35b3480156105a157600080fd5b506105bc60048036038101906105b79190613f81565b61398f565b6040516105c99190614536565b60405180910390f35b3480156105de57600080fd5b506105e7613abe565b6040516105f491906146cf565b60405180910390f35b6000600260008673ffffffffffffffffffffffffffffffffffffffff1673ffffffffffffffffffffffffffffffffffffffff16815260200190815260200160002090506001600081548092919061065390614719565b9190505550848160000160006101000a81548173ffffffffffffffffffffffffffffffffffffffff021916908373ffffffffffffffffffffffffffffffffffffffff160217905550818160010190805190602001906106b3929190613ac4565b50828160020190805190602001906106cc929190613ac4565b50838160030190805190602001906106e5929190613ac4565b505050505050565b60046020528160005260406000206020528060005260406000206000915091505080600001549080600101805461072390614791565b80601f016020809104026020016040519081016040528092919081815260200182805461074f90614791565b801561079c5780601f106107715761010080835404028352916020019161079c565b820191906000526020600020905b81548152906001019060200180831161077f57829003601f168201915b5050505050908060020180546107b190614791565b80601f01602080910402602001604051908101604052809291908181526020018280546107dd90614791565b801561082a5780601f106107ff5761010080835404028352916020019161082a565b820191906000526020600020905b81548152906001019060200180831161080d57829003601f168201915b50505050509080600301805461083f90614791565b80601f016020809104026020016040519081016040528092919081815260200182805461086b90614791565b80156108b85780601f1061088d576101008083540402835291602001916108b8565b820191906000526020600020905b81548152906001019060200180831161089b57829003601f168201915b5050505050905084565b60058480516020810182018051848252602083016020850120818352809550505050505083805160208101820180518482526020830160208501208183528095505050505050828051602081018201805184825260208301602085012081835280955050505050506020528060005260406000206000935093505050508060000160009054906101000a900473ffffffffffffffffffffffffffffffffffffffff16908060010160009054906101000a900473ffffffffffffffffffffffffffffffffffffffff16908060020154908060030154908060040154908060050160009054906101000a900460ff16908060060154908060070160009054906101000a900460ff169080600901549080600a015490508a565b60066020528060005260406000206000915090508060000160009054906101000a900473ffffffffffffffffffffffffffffffffffffffff1690806001018054610a2290614791565b80601f0160208091040260200160405190810160405280929190818152602001828054610a4e90614791565b8015610a9b5780601f10610a7057610100808354040283529160200191610a9b565b820191906000526020600020905b815481529060010190602001808311610a7e57829003601f168201915b505050505090806002018054610ab090614791565b80601f0160208091040260200160405190810160405280929190818152602001828054610adc90614791565b8015610b295780601f10610afe57610100808354040283529160200191610b29565b820191906000526020600020905b815481529060010190602001808311610b0c57829003601f168201915b505050505090806003018054610b3e90614791565b80601f0160208091040260200160405190810160405280929190818152602001828054610b6a90614791565b8015610bb75780601f10610b8c57610100808354040283529160200191610bb7565b820191906000526020600020905b815481529060010190602001808311610b9a57829003601f168201915b505050505090806004015490806005018054610bd290614791565b80601f0160208091040260200160405190810160405280929190818152602001828054610bfe90614791565b8015610c4b5780601f10610c2057610100808354040283529160200191610c4b565b820191906000526020600020905b815481529060010190602001808311610c2e57829003601f168201915b5050505050908060060154908060070154905088565b60008054906101000a900473ffffffffffffffffffffffffffffffffffffffff1681565b3373ffffffffffffffffffffffffffffffffffffffff16600260003373ffffffffffffffffffffffffffffffffffffffff1673ffffffffffffffffffffffffffffffffffffffff16815260200190815260200160002060000160009054906101000a900473ffffffffffffffffffffffffffffffffffffffff1673ffffffffffffffffffffffffffffffffffffffff1614610d55576040517f08c379a0000000000000000000000000000000000000000000000000000000008152600401610d4c9061480f565b60405180910390fd5b87604051602001610d66919061486b565b60405160208183030381529060405280519060200120600260003373ffffffffffffffffffffffffffffffffffffffff1673ffffffffffffffffffffffffffffffffffffffff168152602001908152602001600020600301604051602001610dce9190614916565b60405160208183030381529060405280519060200120148015610e7d575086604051602001610dfd919061486b565b60405160208183030381529060405280519060200120600260003373ffffffffffffffffffffffffffffffffffffffff1673ffffffffffffffffffffffffffffffffffffffff168152602001908152602001600020600201604051602001610e659190614916565b60405160208183030381529060405280519060200120145b8015610f15575085604051602001610e95919061486b565b60405160208183030381529060405280519060200120600260003373ffffffffffffffffffffffffffffffffffffffff1673ffffffffffffffffffffffffffffffffffffffff168152602001908152602001600020600101604051602001610efd9190614916565b60405160208183030381529060405280519060200120145b610f54576040517f08c379a0000000000000000000000000000000000000000000000000000000008152600401610f4b9061499f565b60405180910390fd5b60001515600589604051610f68919061486b565b908152602001604051809103902088604051610f84919061486b565b908152602001604051809103902087604051610fa0919061486b565b9081526020016040518091039020600086815260200190815260200160002060050160009054906101000a900460ff16151514611012576040517f08c379a000000000000000000000000000000000000000000000000000000000815260040161100990614a31565b60405180910390fd5b6000600589604051611024919061486b565b908152602001604051809103902088604051611040919061486b565b90815260200160405180910390208760405161105c919061486b565b9081526020016040518091039020600086815260200190815260200160002090506000600360008673ffffffffffffffffffffffffffffffffffffffff1673ffffffffffffffffffffffffffffffffffffffff1681526020019081526020016000206000600660008873ffffffffffffffffffffffffffffffffffffffff1673ffffffffffffffffffffffffffffffffffffffff1681526020019081526020016000206006015481526020019081526020016000209050848260000160006101000a81548173ffffffffffffffffffffffffffffffffffffffff021916908373ffffffffffffffffffffffffffffffffffffffff160217905550338260010160006101000a81548173ffffffffffffffffffffffffffffffffffffffff021916908373ffffffffffffffffffffffffffffffffffffffff160217905550868260020181905550858260030181905550600660008673ffffffffffffffffffffffffffffffffffffffff1673ffffffffffffffffffffffffffffffffffffffff16815260200190815260200160002060060154826004018190555060018260050160006101000a81548160ff02191690831515021790555083826006018190555060008260070160006101000a81548160ff0219169083151502179055508282600a018190555085816000018190555089816001019080519060200190611263929190613ac4565b508881600201908051906020019061127c929190613ac4565b5087816003019080519060200190611295929190613ac4565b50600660008673ffffffffffffffffffffffffffffffffffffffff1673ffffffffffffffffffffffffffffffffffffffff16815260200190815260200160002060060160008154809291906112e990614719565b919050555050505050505050505050565b6060806060600080600460003373ffffffffffffffffffffffffffffffffffffffff1673ffffffffffffffffffffffffffffffffffffffff16815260200190815260200160002060008781526020019081526020016000206000015490506000600460003373ffffffffffffffffffffffffffffffffffffffff1673ffffffffffffffffffffffffffffffffffffffff168152602001908152602001600020600088815260200190815260200160002060010180546113b890614791565b80601f01602080910402602001604051908101604052809291908181526020018280546113e490614791565b80156114315780601f1061140657610100808354040283529160200191611431565b820191906000526020600020905b81548152906001019060200180831161141457829003601f168201915b505050505090506000600460003373ffffffffffffffffffffffffffffffffffffffff1673ffffffffffffffffffffffffffffffffffffffff1681526020019081526020016000206000898152602001908152602001600020600201805461149890614791565b80601f01602080910402602001604051908101604052809291908181526020018280546114c490614791565b80156115115780601f106114e657610100808354040283529160200191611511565b820191906000526020600020905b8154815290600101906020018083116114f457829003601f168201915b505050505090506000600460003373ffffffffffffffffffffffffffffffffffffffff1673ffffffffffffffffffffffffffffffffffffffff16815260200190815260200160002060008a8152602001908152602001600020600301805461157890614791565b80601f01602080910402602001604051908101604052809291908181526020018280546115a490614791565b80156115f15780601f106115c6576101008083540402835291602001916115f1565b820191906000526020600020905b8154815290600101906020018083116115d457829003601f168201915b50505050509050828282869750975097509750505050509193509193565b600080600587604051611622919061486b565b90815260200160405180910390208660405161163e919061486b565b90815260200160405180910390208560405161165a919061486b565b90815260200160405180910390206000858152602001908152602001600020600801600084815260200190815260200160002060000160009054906101000a900473ffffffffffffffffffffffffffffffffffffffff1690508091505095945050505050565b60026020528060005260406000206000915090508060000160009054906101000a900473ffffffffffffffffffffffffffffffffffffffff169080600101805461170990614791565b80601f016020809104026020016040519081016040528092919081815260200182805461173590614791565b80156117825780601f1061175757610100808354040283529160200191611782565b820191906000526020600020905b81548152906001019060200180831161176557829003601f168201915b50505050509080600201805461179790614791565b80601f01602080910402602001604051908101604052809291908181526020018280546117c390614791565b80156118105780601f106117e557610100808354040283529160200191611810565b820191906000526020600020905b8154815290600101906020018083116117f357829003601f168201915b50505050509080600301805461182590614791565b80601f016020809104026020016040519081016040528092919081815260200182805461185190614791565b801561189e5780601f106118735761010080835404028352916020019161189e565b820191906000526020600020905b81548152906001019060200180831161188157829003601f168201915b5050505050905084565b6000600360003373ffffffffffffffffffffffffffffffffffffffff1673ffffffffffffffffffffffffffffffffffffffff1681526020019081526020016000206000838152602001908152602001600020600101805461190890614791565b80601f016020809104026020016040519081016040528092919081815260200182805461193490614791565b80156119815780601f1061195657610100808354040283529160200191611981565b820191906000526020600020905b81548152906001019060200180831161196457829003601f168201915b505050505090506000600360003373ffffffffffffffffffffffffffffffffffffffff1673ffffffffffffffffffffffffffffffffffffffff168152602001908152602001600020600084815260200190815260200160002060020180546119e890614791565b80601f0160208091040260200160405190810160405280929190818152602001828054611a1490614791565b8015611a615780601f10611a3657610100808354040283529160200191611a61565b820191906000526020600020905b815481529060010190602001808311611a4457829003601f168201915b505050505090506000600360003373ffffffffffffffffffffffffffffffffffffffff1673ffffffffffffffffffffffffffffffffffffffff16815260200190815260200160002060008581526020019081526020016000206003018054611ac890614791565b80601f0160208091040260200160405190810160405280929190818152602001828054611af490614791565b8015611b415780601f10611b1657610100808354040283529160200191611b41565b820191906000526020600020905b815481529060010190602001808311611b2457829003601f168201915b505050505090506000600360003373ffffffffffffffffffffffffffffffffffffffff1673ffffffffffffffffffffffffffffffffffffffff168152602001908152602001600020600086815260200190815260200160002060000154905060001515600585604051611bb4919061486b565b908152602001604051809103902084604051611bd0919061486b565b908152602001604051809103902083604051611bec919061486b565b9081526020016040518091039020600083815260200190815260200160002060070160009054906101000a900460ff16151514611c5e576040517f08c379a0000000000000000000000000000000000000000000000000000000008152600401611c5590614ac3565b60405180910390fd5b6001600585604051611c70919061486b565b908152602001604051809103902084604051611c8c919061486b565b908152602001604051809103902083604051611ca8919061486b565b9081526020016040518091039020600083815260200190815260200160002060070160006101000a81548160ff0219169083151502179055505050505050565b6000806000600660003373ffffffffffffffffffffffffffffffffffffffff1673ffffffffffffffffffffffffffffffffffffffff1681526020019081526020016000206006015490506000600660003373ffffffffffffffffffffffffffffffffffffffff1673ffffffffffffffffffffffffffffffffffffffff16815260200190815260200160002060070154905081819350935050509091565b6060806060600080600360003373ffffffffffffffffffffffffffffffffffffffff1673ffffffffffffffffffffffffffffffffffffffff16815260200190815260200160002060008781526020019081526020016000206000015490506000600360003373ffffffffffffffffffffffffffffffffffffffff1673ffffffffffffffffffffffffffffffffffffffff16815260200190815260200160002060008881526020019081526020016000206001018054611e4390614791565b80601f0160208091040260200160405190810160405280929190818152602001828054611e6f90614791565b8015611ebc5780601f10611e9157610100808354040283529160200191611ebc565b820191906000526020600020905b815481529060010190602001808311611e9f57829003601f168201915b505050505090506000600360003373ffffffffffffffffffffffffffffffffffffffff1673ffffffffffffffffffffffffffffffffffffffff16815260200190815260200160002060008981526020019081526020016000206002018054611f2390614791565b80601f0160208091040260200160405190810160405280929190818152602001828054611f4f90614791565b8015611f9c5780601f10611f7157610100808354040283529160200191611f9c565b820191906000526020600020905b815481529060010190602001808311611f7f57829003601f168201915b505050505090506000600360003373ffffffffffffffffffffffffffffffffffffffff1673ffffffffffffffffffffffffffffffffffffffff16815260200190815260200160002060008a8152602001908152602001600020600301805461200390614791565b80601f016020809104026020016040519081016040528092919081815260200182805461202f90614791565b801561207c5780601f106120515761010080835404028352916020019161207c565b820191906000526020600020905b81548152906001019060200180831161205f57829003601f168201915b50505050509050828282869750975097509750505050509193509193565b6060806060600060606000600660003373ffffffffffffffffffffffffffffffffffffffff1673ffffffffffffffffffffffffffffffffffffffff16815260200190815260200160002060010180546120f290614791565b80601f016020809104026020016040519081016040528092919081815260200182805461211e90614791565b801561216b5780601f106121405761010080835404028352916020019161216b565b820191906000526020600020905b81548152906001019060200180831161214e57829003601f168201915b505050505090506000600660003373ffffffffffffffffffffffffffffffffffffffff1673ffffffffffffffffffffffffffffffffffffffff16815260200190815260200160002060020180546121c190614791565b80601f01602080910402602001604051908101604052809291908181526020018280546121ed90614791565b801561223a5780601f1061220f5761010080835404028352916020019161223a565b820191906000526020600020905b81548152906001019060200180831161221d57829003601f168201915b505050505090506000600660003373ffffffffffffffffffffffffffffffffffffffff1673ffffffffffffffffffffffffffffffffffffffff168152602001908152602001600020600301805461229090614791565b80601f01602080910402602001604051908101604052809291908181526020018280546122bc90614791565b80156123095780601f106122de57610100808354040283529160200191612309565b820191906000526020600020905b8154815290600101906020018083116122ec57829003601f168201915b505050505090506000600660003373ffffffffffffffffffffffffffffffffffffffff1673ffffffffffffffffffffffffffffffffffffffff1681526020019081526020016000206004015490506000600660003373ffffffffffffffffffffffffffffffffffffffff1673ffffffffffffffffffffffffffffffffffffffff16815260200190815260200160002060050180546123a690614791565b80601f01602080910402602001604051908101604052809291908181526020018280546123d290614791565b801561241f5780601f106123f45761010080835404028352916020019161241f565b820191906000526020600020905b81548152906001019060200180831161240257829003601f168201915b5050505050905084848484849950995099509950995050505050509091929394565b6000600585604051612453919061486b565b90815260200160405180910390208460405161246f919061486b565b90815260200160405180910390208360405161248b919061486b565b908152602001604051809103902060008381526020019081526020016000209050600115158160070160009054906101000a900460ff16151514612504576040517f08c379a00000000000000000000000000000000000000000000000000000000081526004016124fb90614b55565b60405180910390fd5b6000816009015490503382600801600083815260200190815260200160002060000160006101000a81548173ffffffffffffffffffffffffffffffffffffffff021916908373ffffffffffffffffffffffffffffffffffffffff160217905550600660003373ffffffffffffffffffffffffffffffffffffffff1673ffffffffffffffffffffffffffffffffffffffff16815260200190815260200160002060070154826008016000838152602001908152602001600020600101819055508160090160008154809291906125d890614719565b91905055506000600460003373ffffffffffffffffffffffffffffffffffffffff1673ffffffffffffffffffffffffffffffffffffffff1681526020019081526020016000206000600660003373ffffffffffffffffffffffffffffffffffffffff1673ffffffffffffffffffffffffffffffffffffffff168152602001908152602001600020600701548152602001908152602001600020905083816000018190555086816001019080519060200190612694929190613ac4565b50858160020190805190602001906126ad929190613ac4565b50848160030190805190602001906126c6929190613ac4565b50600660003373ffffffffffffffffffffffffffffffffffffffff1673ffffffffffffffffffffffffffffffffffffffff168152602001908152602001600020600701600081548092919061271a90614719565b919050555050505050505050565b60008060058660405161273b919061486b565b908152602001604051809103902085604051612757919061486b565b908152602001604051809103902084604051612773919061486b565b9081526020016040518091039020600084815260200190815260200160002060070160009054906101000a900460ff16905080915050949350505050565b60003373ffffffffffffffffffffffffffffffffffffffff16600260003373ffffffffffffffffffffffffffffffffffffffff1673ffffffffffffffffffffffffffffffffffffffff16815260200190815260200160002060000160009054906101000a900473ffffffffffffffffffffffffffffffffffffffff1673ffffffffffffffffffffffffffffffffffffffff1614156128525760019050612857565b600090505b90565b6000600660003373ffffffffffffffffffffffffffffffffffffffff1673ffffffffffffffffffffffffffffffffffffffff1681526020019081526020016000209050858160010190805190602001906128b5929190613ac4565b50848160020190805190602001906128ce929190613ac4565b50838160030190805190602001906128e7929190613ac4565b5082816004018190555081816005019080519060200190612909929190613ac4565b50505050505050565b6000806000600587604051612927919061486b565b908152602001604051809103902086604051612943919061486b565b90815260200160405180910390208560405161295f919061486b565b908152602001604051809103902060008581526020019081526020016000206009015490506000600588604051612996919061486b565b9081526020016040518091039020876040516129b2919061486b565b9081526020016040518091039020866040516129ce919061486b565b90815260200160405180910390206000868152602001908152602001600020600201549050818193509350505094509492505050565b600360205281600052604060002060205280600052604060002060009150915050806000015490806001018054612a3a90614791565b80601f0160208091040260200160405190810160405280929190818152602001828054612a6690614791565b8015612ab35780601f10612a8857610100808354040283529160200191612ab3565b820191906000526020600020905b815481529060010190602001808311612a9657829003601f168201915b505050505090806002018054612ac890614791565b80601f0160208091040260200160405190810160405280929190818152602001828054612af490614791565b8015612b415780601f10612b1657610100808354040283529160200191612b41565b820191906000526020600020905b815481529060010190602001808311612b2457829003601f168201915b505050505090806003018054612b5690614791565b80601f0160208091040260200160405190810160405280929190818152602001828054612b8290614791565b8015612bcf5780601f10612ba457610100808354040283529160200191612bcf565b820191906000526020600020905b815481529060010190602001808311612bb257829003601f168201915b5050505050905084565b6000600360003373ffffffffffffffffffffffffffffffffffffffff1673ffffffffffffffffffffffffffffffffffffffff16815260200190815260200160002060008481526020019081526020016000206000015490506000600360003373ffffffffffffffffffffffffffffffffffffffff1673ffffffffffffffffffffffffffffffffffffffff16815260200190815260200160002060008581526020019081526020016000206001018054612c9190614791565b80601f0160208091040260200160405190810160405280929190818152602001828054612cbd90614791565b8015612d0a5780601f10612cdf57610100808354040283529160200191612d0a565b820191906000526020600020905b815481529060010190602001808311612ced57829003601f168201915b505050505090506000600360003373ffffffffffffffffffffffffffffffffffffffff1673ffffffffffffffffffffffffffffffffffffffff16815260200190815260200160002060008681526020019081526020016000206002018054612d7190614791565b80601f0160208091040260200160405190810160405280929190818152602001828054612d9d90614791565b8015612dea5780601f10612dbf57610100808354040283529160200191612dea565b820191906000526020600020905b815481529060010190602001808311612dcd57829003601f168201915b505050505090506000600360003373ffffffffffffffffffffffffffffffffffffffff1673ffffffffffffffffffffffffffffffffffffffff16815260200190815260200160002060008781526020019081526020016000206003018054612e5190614791565b80601f0160208091040260200160405190810160405280929190818152602001828054612e7d90614791565b8015612eca5780601f10612e9f57610100808354040283529160200191612eca565b820191906000526020600020905b815481529060010190602001808311612ead57829003601f168201915b505050505090506000600584604051612ee3919061486b565b908152602001604051809103902083604051612eff919061486b565b908152602001604051809103902082604051612f1b919061486b565b90815260200160405180910390206000868152602001908152602001600020600801600087815260200190815260200160002060000160009054906101000a900473ffffffffffffffffffffffffffffffffffffffff1690506000600585604051612f86919061486b565b908152602001604051809103902084604051612fa2919061486b565b908152602001604051809103902083604051612fbe919061486b565b9081526020016040518091039020600087815260200190815260200160002060080160008881526020019081526020016000206001015490506000600586604051613009919061486b565b908152602001604051809103902085604051613025919061486b565b908152602001604051809103902084604051613041919061486b565b9081526020016040518091039020600088815260200190815260200160002060090154905060005b818110156132e4576000600588604051613083919061486b565b90815260200160405180910390208760405161309f919061486b565b9081526020016040518091039020866040516130bb919061486b565b908152602001604051809103902060008a8152602001908152602001600020600801600083815260200190815260200160002060000160009054906101000a900473ffffffffffffffffffffffffffffffffffffffff1690506000600589604051613126919061486b565b908152602001604051809103902088604051613142919061486b565b90815260200160405180910390208760405161315e919061486b565b908152602001604051809103902060008b81526020019081526020016000206008016000848152602001908152602001600020600101549050600460008373ffffffffffffffffffffffffffffffffffffffff1673ffffffffffffffffffffffffffffffffffffffff16815260200190815260200160002060008281526020019081526020016000206000808201600090556001820160006132009190613b4a565b6002820160006132109190613b4a565b6003820160006132209190613b4a565b5050600589604051613232919061486b565b90815260200160405180910390208860405161324e919061486b565b90815260200160405180910390208760405161326a919061486b565b908152602001604051809103902060008b81526020019081526020016000206008016000848152602001908152602001600020600080820160006101000a81549073ffffffffffffffffffffffffffffffffffffffff021916905560018201600090555050505080806132dc90614719565b915050613069565b50826005876040516132f6919061486b565b908152602001604051809103902086604051613312919061486b565b90815260200160405180910390208560405161332e919061486b565b9081526020016040518091039020600089815260200190815260200160002060000160006101000a81548173ffffffffffffffffffffffffffffffffffffffff021916908373ffffffffffffffffffffffffffffffffffffffff16021790555060006005876040516133a0919061486b565b9081526020016040518091039020866040516133bc919061486b565b9081526020016040518091039020856040516133d8919061486b565b9081526020016040518091039020600089815260200190815260200160002060070160006101000a81548160ff0219169083151502179055506000600587604051613423919061486b565b90815260200160405180910390208660405161343f919061486b565b90815260200160405180910390208560405161345b919061486b565b9081526020016040518091039020600089815260200190815260200160002060090181905550600360003373ffffffffffffffffffffffffffffffffffffffff1673ffffffffffffffffffffffffffffffffffffffff16815260200190815260200160002060008a81526020019081526020016000206000808201600090556001820160006134ea9190613b4a565b6002820160006134fa9190613b4a565b60038201600061350a9190613b4a565b50503373ffffffffffffffffffffffffffffffffffffffff166108fc671bc16d674ec800009081150290604051600060405180830381858888f1935050505015801561355a573d6000803e3d6000fd5b506000600660008573ffffffffffffffffffffffffffffffffffffffff1673ffffffffffffffffffffffffffffffffffffffff1681526020019081526020016000206006015490506000600360008673ffffffffffffffffffffffffffffffffffffffff1673ffffffffffffffffffffffffffffffffffffffff1681526020019081526020016000206000838152602001908152602001600020905088816000018190555087816001019080519060200190613617929190613ac4565b5086816002019080519060200190613630929190613ac4565b5085816003019080519060200190613649929190613ac4565b508160058960405161365b919061486b565b908152602001604051809103902088604051613677919061486b565b908152602001604051809103902087604051613693919061486b565b908152602001604051809103902060008b815260200190815260200160002060040181905550600660008673ffffffffffffffffffffffffffffffffffffffff1673ffffffffffffffffffffffffffffffffffffffff168152602001908152602001600020600601600081548092919061370c90614719565b91905055505050505050505050505050565b60008060008060008060058a604051613737919061486b565b908152602001604051809103902089604051613753919061486b565b90815260200160405180910390208860405161376f919061486b565b9081526020016040518091039020600088815260200190815260200160002060000160009054906101000a900473ffffffffffffffffffffffffffffffffffffffff169050600060058b6040516137c6919061486b565b90815260200160405180910390208a6040516137e2919061486b565b9081526020016040518091039020896040516137fe919061486b565b90815260200160405180910390206000898152602001908152602001600020600201549050600060058c604051613835919061486b565b90815260200160405180910390208b604051613851919061486b565b90815260200160405180910390208a60405161386d919061486b565b908152602001604051809103902060008a8152602001908152602001600020600401549050600060058d6040516138a4919061486b565b90815260200160405180910390208c6040516138c0919061486b565b90815260200160405180910390208b6040516138dc919061486b565b908152602001604051809103902060008b8152602001908152602001600020600601549050600060058e604051613913919061486b565b90815260200160405180910390208d60405161392f919061486b565b90815260200160405180910390208c60405161394b919061486b565b908152602001604051809103902060008c8152602001908152602001600020600a015490508484848484995099509950995099505050505050945094509450945094565b6000806005866040516139a2919061486b565b9081526020016040518091039020856040516139be919061486b565b9081526020016040518091039020846040516139da919061486b565b9081526020016040518091039020600084815260200190815260200160002090506000816009015490506000811415613a1857600092505050613ab6565b60005b81811015613aae573373ffffffffffffffffffffffffffffffffffffffff1683600801600083815260200190815260200160002060000160009054906101000a900473ffffffffffffffffffffffffffffffffffffffff1673ffffffffffffffffffffffffffffffffffffffff161415613a9b5760019350505050613ab6565b8080613aa690614719565b915050613a1b565b506000925050505b949350505050565b60015481565b828054613ad090614791565b90600052602060002090601f016020900481019282613af25760008555613b39565b82601f10613b0b57805160ff1916838001178555613b39565b82800160010185558215613b39579182015b82811115613b38578251825591602001919060010190613b1d565b5b509050613b469190613b8a565b5090565b508054613b5690614791565b6000825580601f10613b685750613b87565b601f016020900490600052602060002090810190613b869190613b8a565b5b50565b5b80821115613ba3576000816000905550600101613b8b565b5090565b6000604051905090565b600080fd5b600080fd5b600073ffffffffffffffffffffffffffffffffffffffff82169050919050565b6000613be682613bbb565b9050919050565b613bf681613bdb565b8114613c0157600080fd5b50565b600081359050613c1381613bed565b92915050565b600080fd5b600080fd5b6000601f19601f8301169050919050565b7f4e487b7100000000000000000000000000000000000000000000000000000000600052604160045260246000fd5b613c6c82613c23565b810181811067ffffffffffffffff82111715613c8b57613c8a613c34565b5b80604052505050565b6000613c9e613ba7565b9050613caa8282613c63565b919050565b600067ffffffffffffffff821115613cca57613cc9613c34565b5b613cd382613c23565b9050602081019050919050565b82818337600083830152505050565b6000613d02613cfd84613caf565b613c94565b905082815260208101848484011115613d1e57613d1d613c1e565b5b613d29848285613ce0565b509392505050565b600082601f830112613d4657613d45613c19565b5b8135613d56848260208601613cef565b91505092915050565b60008060008060808587031215613d7957613d78613bb1565b5b6000613d8787828801613c04565b945050602085013567ffffffffffffffff811115613da857613da7613bb6565b5b613db487828801613d31565b935050604085013567ffffffffffffffff811115613dd557613dd4613bb6565b5b613de187828801613d31565b925050606085013567ffffffffffffffff811115613e0257613e01613bb6565b5b613e0e87828801613d31565b91505092959194509250565b6000819050919050565b613e2d81613e1a565b8114613e3857600080fd5b50565b600081359050613e4a81613e24565b92915050565b60008060408385031215613e6757613e66613bb1565b5b6000613e7585828601613c04565b9250506020613e8685828601613e3b565b9150509250929050565b613e9981613e1a565b82525050565b600081519050919050565b600082825260208201905092915050565b60005b83811015613ed9578082015181840152602081019050613ebe565b83811115613ee8576000848401525b50505050565b6000613ef982613e9f565b613f038185613eaa565b9350613f13818560208601613ebb565b613f1c81613c23565b840191505092915050565b6000608082019050613f3c6000830187613e90565b8181036020830152613f4e8186613eee565b90508181036040830152613f628185613eee565b90508181036060830152613f768184613eee565b905095945050505050565b60008060008060808587031215613f9b57613f9a613bb1565b5b600085013567ffffffffffffffff811115613fb957613fb8613bb6565b5b613fc587828801613d31565b945050602085013567ffffffffffffffff811115613fe657613fe5613bb6565b5b613ff287828801613d31565b935050604085013567ffffffffffffffff81111561401357614012613bb6565b5b61401f87828801613d31565b925050606061403087828801613e3b565b91505092959194509250565b61404581613bdb565b82525050565b60008115159050919050565b6140608161404b565b82525050565b60006101408201905061407c600083018d61403c565b614089602083018c61403c565b614096604083018b613e90565b6140a3606083018a613e90565b6140b06080830189613e90565b6140bd60a0830188614057565b6140ca60c0830187613e90565b6140d760e0830186614057565b6140e5610100830185613e90565b6140f3610120830184613e90565b9b9a5050505050505050505050565b60006020828403121561411857614117613bb1565b5b600061412684828501613c04565b91505092915050565b600061010082019050614145600083018b61403c565b8181036020830152614157818a613eee565b9050818103604083015261416b8189613eee565b9050818103606083015261417f8188613eee565b905061418e6080830187613e90565b81810360a08301526141a08186613eee565b90506141af60c0830185613e90565b6141bc60e0830184613e90565b9998505050505050505050565b60006020820190506141de600083018461403c565b92915050565b600080600080600080600080610100898b03121561420557614204613bb1565b5b600089013567ffffffffffffffff81111561422357614222613bb6565b5b61422f8b828c01613d31565b985050602089013567ffffffffffffffff8111156142505761424f613bb6565b5b61425c8b828c01613d31565b975050604089013567ffffffffffffffff81111561427d5761427c613bb6565b5b6142898b828c01613d31565b965050606061429a8b828c01613e3b565b95505060806142ab8b828c01613e3b565b94505060a06142bc8b828c01613c04565b93505060c06142cd8b828c01613e3b565b92505060e06142de8b828c01613e3b565b9150509295985092959890939650565b60006020828403121561430457614303613bb1565b5b600061431284828501613e3b565b91505092915050565b600060808201905081810360008301526143358187613eee565b905081810360208301526143498186613eee565b9050818103604083015261435d8185613eee565b905061436c6060830184613e90565b95945050505050565b600080600080600060a0868803121561439157614390613bb1565b5b600086013567ffffffffffffffff8111156143af576143ae613bb6565b5b6143bb88828901613d31565b955050602086013567ffffffffffffffff8111156143dc576143db613bb6565b5b6143e888828901613d31565b945050604086013567ffffffffffffffff81111561440957614408613bb6565b5b61441588828901613d31565b935050606061442688828901613e3b565b925050608061443788828901613e3b565b9150509295509295909350565b6000608082019050614459600083018761403c565b818103602083015261446b8186613eee565b9050818103604083015261447f8185613eee565b905081810360608301526144938184613eee565b905095945050505050565b60006040820190506144b36000830185613e90565b6144c06020830184613e90565b9392505050565b600060a08201905081810360008301526144e18188613eee565b905081810360208301526144f58187613eee565b905081810360408301526145098186613eee565b90506145186060830185613e90565b818103608083015261452a8184613eee565b90509695505050505050565b600060208201905061454b6000830184614057565b92915050565b600080600080600060a0868803121561456d5761456c613bb1565b5b600086013567ffffffffffffffff81111561458b5761458a613bb6565b5b61459788828901613d31565b955050602086013567ffffffffffffffff8111156145b8576145b7613bb6565b5b6145c488828901613d31565b945050604086013567ffffffffffffffff8111156145e5576145e4613bb6565b5b6145f188828901613d31565b935050606061460288828901613e3b565b925050608086013567ffffffffffffffff81111561462357614622613bb6565b5b61462f88828901613d31565b9150509295509295909350565b6000806040838503121561465357614652613bb1565b5b600061466185828601613e3b565b925050602061467285828601613e3b565b9150509250929050565b600060a082019050614691600083018861403c565b61469e6020830187613e90565b6146ab6040830186613e90565b6146b86060830185613e90565b6146c56080830184613e90565b9695505050505050565b60006020820190506146e46000830184613e90565b92915050565b7f4e487b7100000000000000000000000000000000000000000000000000000000600052601160045260246000fd5b600061472482613e1a565b91507fffffffffffffffffffffffffffffffffffffffffffffffffffffffffffffffff821415614757576147566146ea565b5b600182019050919050565b7f4e487b7100000000000000000000000000000000000000000000000000000000600052602260045260246000fd5b600060028204905060018216806147a957607f821691505b602082108114156147bd576147bc614762565b5b50919050565b7f4f6e6c792061646d696e2063616e205265676973746572206c616e6400000000600082015250565b60006147f9601c83613eaa565b9150614804826147c3565b602082019050919050565b60006020820190508181036000830152614828816147ec565b9050919050565b600081905092915050565b600061484582613e9f565b61484f818561482f565b935061485f818560208601613ebb565b80840191505092915050565b6000614877828461483a565b915081905092915050565b60008190508160005260206000209050919050565b600081546148a481614791565b6148ae818661482f565b945060018216600081146148c957600181146148da5761490d565b60ff1983168652818601935061490d565b6148e385614882565b60005b83811015614905578154818901526001820191506020810190506148e6565b838801955050505b50505092915050565b60006149228284614897565b915081905092915050565b7f41646d696e2063616e206f6e6c79207265676973746572206c616e64206f662060008201527f73616d6520636974792e00000000000000000000000000000000000000000000602082015250565b6000614989602a83613eaa565b91506149948261492d565b604082019050919050565b600060208201905081810360008301526149b88161497c565b9050919050565b7f537572766579204e756d62657220616c7265616479207265676973746572656460008201527f2100000000000000000000000000000000000000000000000000000000000000602082015250565b6000614a1b602183613eaa565b9150614a26826149bf565b604082019050919050565b60006020820190508181036000830152614a4a81614a0e565b9050919050565b7f50726f706572747920616c7265616479206d61726b656420617661696c61626c60008201527f6500000000000000000000000000000000000000000000000000000000000000602082015250565b6000614aad602183613eaa565b9150614ab882614a51565b604082019050919050565b60006020820190508181036000830152614adc81614aa0565b9050919050565b7f546869732070726f7065727479206973204e4f54206d61726b656420666f722060008201527f73616c6521000000000000000000000000000000000000000000000000000000602082015250565b6000614b3f602583613eaa565b9150614b4a82614ae3565b604082019050919050565b60006020820190508181036000830152614b6e81614b32565b905091905056fea2646970667358221220b7ef12d3eedfbb90d94c869b41edeeb8aa73597b0e641aef623d3b9cf728082e64736f6c63430008090033",
  "immutableReferences": {},
  "source": "// SPDX-License-Identifier: MIT\npragma solidity >= 0.5.0 < 0.9.0;\n\ncontract Registry{\n\n    address public superAdmin;\n    uint public totalAdmins;\n    \n    struct Admin{\n        address adminAddress;\n        string city;\n        string district;\n        string state;\n    }\n\n    struct LandDetails{\n        address owner;\n        address admin;\n        uint256 propertyId;\n        uint surveyNumber;\n        uint index;\n        bool registered;\n        uint marketValue;\n        bool markAvailable;\n        mapping(uint => RequestDetails) requests; // reqNo => RequestDetails\n        uint noOfRequests;  // other users requested to this land\n        uint sqft;\n    }\n\n    struct UserProfile{\n        address userAddr;\n        string fullName;\n        string gender;\n        string email;\n        uint256 contact;\n        string residentialAddr;\n        uint totalIndices;\n        uint requestIndices;  // this user requested to other lands\n    }\n\n    struct OwnerOwns{\n        uint surveyNumber;\n        string state;\n        string district;\n        string city;\n    }\n    \n    struct RequestedLands{\n        uint surveyNumber;\n        string state;\n        string district;\n        string city;\n    }\n\n    struct RequestDetails{\n        address whoRequested;\n        uint reqIndex;\n    }\n\n    mapping(address => Admin) public admins;\n    mapping(address => mapping(uint => OwnerOwns)) public ownerMapsProperty;  // ownerAddr => index no. => OwnerOwns \n    mapping(address => mapping(uint => RequestedLands)) public requestedLands;  // ownerAddr => reqIndex => RequestedLands\n    mapping(string => mapping(string => mapping(string => mapping(uint => LandDetails)))) public landDetalsMap; // state => district => city => surveyNo => LandDetails\n    mapping(address => UserProfile) public userProfile;\n    \n\n    constructor(){\n        superAdmin = msg.sender;\n    }\n\n    modifier onlyAdmin(){\n        require(admins[msg.sender].adminAddress == msg.sender, \"Only admin can Register land\");\n        _;\n    }\n\n\n    // SuperAdmin: Registers new admin\n    function addAdmin(address _adminAddr, string memory _state, string memory _district, string memory _city) external{\n        Admin storage newAdmin = admins[_adminAddr];\n        totalAdmins++;\n\n        newAdmin.adminAddress = _adminAddr;\n        newAdmin.city = _city;\n        newAdmin.district = _district;\n        newAdmin.state = _state;\n    }\n\n\n    // check if it is admin\n    function isAdmin() external view returns(bool){\n        if(admins[msg.sender].adminAddress == msg.sender){\n            return true;\n        }\n        else return false;\n    }\n\n\n    // Admin: registers land\n    function registerLand(string memory _state, string memory _district, string memory _city, uint256 _propertyId, uint _surveyNo, address _owner, uint _marketValue, uint _sqft) external onlyAdmin{\n        \n        require(keccak256(abi.encodePacked(admins[msg.sender].state)) == keccak256(abi.encodePacked(_state))  \n        && keccak256(abi.encodePacked(admins[msg.sender].district)) == keccak256(abi.encodePacked(_district))\n        && keccak256(abi.encodePacked(admins[msg.sender].city)) == keccak256(abi.encodePacked(_city)), \"Admin can only register land of same city.\");\n\n        require(landDetalsMap[_state][_district][_city][_surveyNo].registered == false, \"Survey Number already registered!\");\n\n        LandDetails storage newLandRegistry = landDetalsMap[_state][_district][_city][_surveyNo];\n        OwnerOwns storage newOwnerOwns = ownerMapsProperty[_owner][userProfile[_owner].totalIndices];\n        \n\n        newLandRegistry.owner = _owner;\n        newLandRegistry.admin = msg.sender;\n        newLandRegistry.propertyId = _propertyId;\n        newLandRegistry.surveyNumber = _surveyNo;\n        newLandRegistry.index = userProfile[_owner].totalIndices;\n        newLandRegistry.registered = true;\n        newLandRegistry.marketValue = _marketValue;\n        newLandRegistry.markAvailable = false;\n        newLandRegistry.sqft = _sqft;\n\n        newOwnerOwns.surveyNumber = _surveyNo;\n        newOwnerOwns.state = _state;\n        newOwnerOwns.district = _district;\n        newOwnerOwns.city = _city;\n\n        userProfile[_owner].totalIndices++;\n    }\n\n\n    // User_1: set user profile\n    function setUserProfile(string memory _fullName, string memory _gender, string memory _email, uint256 _contact, string memory _residentialAddr) external{\n        \n        UserProfile storage newUserProfile = userProfile[msg.sender];\n\n        newUserProfile.fullName = _fullName;\n        newUserProfile.gender = _gender;\n        newUserProfile.email = _email;\n        newUserProfile.contact = _contact;\n        newUserProfile.residentialAddr = _residentialAddr;\n    }\n\n\n    // User_1: mark property available\n    function markMyPropertyAvailable(uint indexNo) external {\n        \n        string memory state = ownerMapsProperty[msg.sender][indexNo].state;\n        string memory district = ownerMapsProperty[msg.sender][indexNo].district;\n        string memory city = ownerMapsProperty[msg.sender][indexNo].city;\n        uint surveyNumber = ownerMapsProperty[msg.sender][indexNo].surveyNumber;\n\n        require(landDetalsMap[state][district][city][surveyNumber].markAvailable == false, \"Property already marked available\");\n\n        landDetalsMap[state][district][city][surveyNumber].markAvailable = true;\n    \n    }\n\n\n    // User_2: Request for buy  **ownerAddress & index = arguements** \n    function RequestForBuy(string memory _state, string memory _district, string memory _city, uint _surveyNo) external payable{\n\n        LandDetails storage thisLandDetail = landDetalsMap[_state][_district][_city][_surveyNo];\n        require(thisLandDetail.markAvailable == true, \"This property is NOT marked for sale!\");\n\n        uint req_serialNum = thisLandDetail.noOfRequests; \n        thisLandDetail.requests[req_serialNum].whoRequested = msg.sender;\n        thisLandDetail.requests[req_serialNum].reqIndex = userProfile[msg.sender].requestIndices;\n        thisLandDetail.noOfRequests++;\n\n        // adding requested land to user_2 profile\n        RequestedLands storage newReqestedLands = requestedLands[msg.sender][userProfile[msg.sender].requestIndices];\n        newReqestedLands.surveyNumber = _surveyNo;\n        newReqestedLands.state = _state;\n        newReqestedLands.district = _district;\n        newReqestedLands.city = _city;\n\n        userProfile[msg.sender].requestIndices++;\n\n    }\n\n\n    // User_1: Accept the buy request; sell.\n    function AcceptRequest(uint _index, uint _reqNo) external payable{\n\n        uint _surveyNo = ownerMapsProperty[msg.sender][_index].surveyNumber;\n        string memory _state = ownerMapsProperty[msg.sender][_index].state; \n        string memory _district = ownerMapsProperty[msg.sender][_index].district;\n        string memory _city = ownerMapsProperty[msg.sender][_index].city;\n        \n        // updating LandDetails\n        address newOwner = landDetalsMap[_state][_district][_city][_surveyNo].requests[_reqNo].whoRequested;\n        uint newOwner_reqIndex = landDetalsMap[_state][_district][_city][_surveyNo].requests[_reqNo].reqIndex;\n        uint noOfReq = landDetalsMap[_state][_district][_city][_surveyNo].noOfRequests;\n\n        // deleting requested land from all requesters AND removing all incoming requests\n        for(uint i=0; i<noOfReq; i++){\n            address requesterAddr = landDetalsMap[_state][_district][_city][_surveyNo].requests[i].whoRequested;\n            uint requester_reqIndx = landDetalsMap[_state][_district][_city][_surveyNo].requests[i].reqIndex;\n            \n            delete requestedLands[requesterAddr][requester_reqIndx];\n            delete landDetalsMap[_state][_district][_city][_surveyNo].requests[i];\n        }\n\n        landDetalsMap[_state][_district][_city][_surveyNo].owner = newOwner;\n        landDetalsMap[_state][_district][_city][_surveyNo].markAvailable = false;\n        landDetalsMap[_state][_district][_city][_surveyNo].noOfRequests = 0;\n\n        // deleting property from user_1's ownerMapsProperty \n        delete ownerMapsProperty[msg.sender][_index];\n\tpayable(msg.sender).transfer(2 ether) ;\n        // adding ownerMapsProperty for newOwner\n        uint newOwnerTotProp = userProfile[newOwner].totalIndices;\n        OwnerOwns storage newOwnerOwns = ownerMapsProperty[newOwner][newOwnerTotProp];\n       \n        newOwnerOwns.surveyNumber = _surveyNo;\n        newOwnerOwns.state = _state;\n        newOwnerOwns.district = _district;\n        newOwnerOwns.city = _city;\n        \n\n        landDetalsMap[_state][_district][_city][_surveyNo].index = newOwnerTotProp;\n\n        userProfile[newOwner].totalIndices++;\n\n    }\n\n\n    \n    //******* GETTERS **********\n\n    // return land details \n    function getLandDetails(string memory _state, string memory _district, string memory _city, uint _surveyNo) external view returns(address, uint256, uint, uint, uint){\n        \n        address owner = landDetalsMap[_state][_district][_city][_surveyNo].owner;\n        uint256 propertyid = landDetalsMap[_state][_district][_city][_surveyNo].propertyId;\n        uint indx = landDetalsMap[_state][_district][_city][_surveyNo].index;\n        uint mv = landDetalsMap[_state][_district][_city][_surveyNo].marketValue;\n        uint sqft = landDetalsMap[_state][_district][_city][_surveyNo].sqft;\n\n        return(owner, propertyid, indx, mv, sqft);\n    }\n\n    function getRequestCnt_propId(string memory _state, string memory _district, string memory _city, uint _surveyNo) external view returns(uint, uint256){\n        uint _noOfRequests = landDetalsMap[_state][_district][_city][_surveyNo].noOfRequests;\n        uint256 _propertyId = landDetalsMap[_state][_district][_city][_surveyNo].propertyId;\n        return(_noOfRequests, _propertyId);\n    }\n\n    function getRequesterDetail(string memory _state, string memory _district, string memory _city, uint _surveyNo, uint _reqIndex) external view returns(address){\n        address requester = landDetalsMap[_state][_district][_city][_surveyNo].requests[_reqIndex].whoRequested;\n        return(requester);\n    }\n\n    function isAvailable(string memory _state, string memory _district, string memory _city, uint _surveyNo) external view returns(bool){\n        bool available = landDetalsMap[_state][_district][_city][_surveyNo].markAvailable;\n        return(available);\n    }\n\n    function getOwnerOwns(uint indx) external view returns(string memory, string memory, string memory, uint){\n        \n        uint surveyNo = ownerMapsProperty[msg.sender][indx].surveyNumber;\n        string memory state = ownerMapsProperty[msg.sender][indx].state;\n        string memory district = ownerMapsProperty[msg.sender][indx].district;\n        string memory city = ownerMapsProperty[msg.sender][indx].city;\n\n        return(state, district, city, surveyNo);\n    }\n\n    function getRequestedLands(uint indx) external view returns(string memory, string memory, string memory, uint){\n        \n        uint surveyNo = requestedLands[msg.sender][indx].surveyNumber;\n        string memory state = requestedLands[msg.sender][indx].state;\n        string memory district = requestedLands[msg.sender][indx].district;\n        string memory city = requestedLands[msg.sender][indx].city;\n\n        return(state, district, city, surveyNo);\n    }\n\n    function getUserProfile() external view returns(string memory, string memory, string memory, uint256, string memory){\n        \n        string memory fullName = userProfile[msg.sender].fullName;\n        string memory gender = userProfile[msg.sender].gender;\n        string memory email = userProfile[msg.sender].email;\n        uint256 contact = userProfile[msg.sender].contact;\n        string memory residentialAddr = userProfile[msg.sender].residentialAddr;\n\n        return(fullName, gender, email, contact, residentialAddr);\n    }\n\n    function getIndices() external view returns(uint, uint){\n\n        uint _totalIndices = userProfile[msg.sender].totalIndices;\n        uint _reqIndices = userProfile[msg.sender].requestIndices;\n\n        return(_totalIndices, _reqIndices);\n    }\n\n\n    function didIRequested(string memory _state, string memory _district, string memory _city, uint _surveyNo) external view returns(bool){\n        \n        LandDetails storage thisLandDetail = landDetalsMap[_state][_district][_city][_surveyNo];\n        uint _noOfRequests = thisLandDetail.noOfRequests;\n\n        if(_noOfRequests == 0) \n            return (false);\n\n        for(uint i=0; i<_noOfRequests; i++){\n            if(thisLandDetail.requests[i].whoRequested == msg.sender){\n                return (true);\n            }\n        } \n\n        return(false);\n    } \n\n}\n",
  "sourcePath": "/home/sid/land-registry/contracts/Registry.sol",
  "compiler": {
    "name": "solc",
    "version": "0.8.9+commit.e5eed63a.Emscripten.clang"
  },
  "schemaVersion": "3.4.13",
  "updatedAt": "2023-04-24T18:03:08.187Z",
  "networkType": "ethereum",
  "devdoc": {
    "kind": "dev",
    "methods": {},
    "version": 1
  },
  "userdoc": {
    "kind": "user",
    "methods": {},
    "version": 1
  }
}